:100000000C9439000C9470050C9470050C947005D8
:100010000C9470050C9470050C9405040C94B303B7
:100020000C94DC030C948A030C9461030C94380345
:100030000C9470050C9470050C9470050C9470056C
:100040000C9470050C9470050C9470050C9470055C
:100050000C9470050060008E80008E0098000AEC01
:10006000009800B08000B000B1000AF600B100BAFC
:10007000800011241FBECFE5D8E0DEBFCDBFE4E590
:10008000F0E040E017C0B591A5913591259105911B
:1000900007FD0CC095918591EF01F92FE82F059090
:1000A0000D92A217B307D9F7FE0104C01D92A21743
:1000B000B307E1F7E137F40731F70E94D5020C945A
:0600C0006100F894FFCF7F
:1000C6007F928F929F92AF92BF92CF92DF92EF92E2
:1000D600FF920F931F93CF93DF938C01762EC42F3D
:1000E6006C01092E000CEE08FF08D1E0892B09F0FF
:1000F600D0E0C114D104E104F104A9F0A7019601EE
:100106000F2EFAE08F2E912CA12CB12CF02DDF5F53
:10011600CA01B901A50194010E94D1042115310536
:1001260041055105A1F74C2F4D1B0AF440E0112360
:1001360054F4F094E094D094C094C11CD11CE11CFA
:10014600F11CC1E001C0C0E07A947A947D0E740E71
:10015600C70DD40F31F18C2F8D1BD82F0F2EFAE03F
:100166008F2E912CA12CB12CF02DC43078F40C2FAD
:1001760010E0000F111F08561F4FC701B601A50159
:1001860094010E94D104F80171836083C701B6010E
:10019600A50194010E94D10469017A01C150DC13C2
:1001A600E4CFDF91CF911F910F91FF90EF90DF90F9
:0E01B600CF90BF90AF909F908F907F90089554
:1001C4008091AC008130A1F020F0823009F43FC06E
:1001D400089580916400813009F066C08093AC007A
:1001E4008093AF001092AE008FEF8093610008956A
:1001F40080916000813061F48091B0008F5F8D3018
:1002040018F48093B000089581E08093B0000895BD
:1002140080916300813059F48091B000815019F0CD
:100224008093B00008958CE08093B000089580918D
:1002340064008130C9F582E08093AC0081E0809352
:10024400AE001092AF008FEF80936200089580910A
:100254006000813059F48091B1008F5F8C3318F4C1
:100264008093B10008951092B100089580916300C5
:10027400813059F48091B100815019F08093B1001C
:1002840008958BE38093B1000895809164008130D8
:1002940059F41092AF001092AE008FEF8093620079
:0A02A400809361001092AC000895F1
:1002AE000E94E804E091B500F0E0EE0FFF1FE85663
:1002BE00FF4F0190F081E02DFF27E257FF4F608145
:1002CE00609580E390E00E946D058091B60090E00D
:1002DE000090B50002C0959587950A94E2F780FFCD
:1002EE0005C060E880E390E00E9454058091B5005F
:1002FE00813071F028F0823099F08330C9F01FC040
:10030E0060916200617086E390E00E945A0517C00A
:10031E0060916200627086E390E00E945A050FC001
:10032E0060916100647086E390E00E945A0507C0F8
:10033E0060916100607186E390E00E945A058091A1
:10034E00B5008F5F843018F48093B5000895109235
:04035E00B500089549
:1003620061E083E390E00E944D05811111C080910C
:10037200B9008F5F8093B900833038F082E08093B8
:10038200B90081E0809360000895109260000895A2
:1003920062E083E390E00E944D05811111C08091DB
:1003A200B8008F5F8093B800833038F082E080938A
:1003B200B80081E08093640008951092640008956B
:1003C20064E083E390E00E944D05811111C08091A9
:1003D200B7008F5F8093B700833038F082E080935C
:1003E200B70081E08093630008951092630008953E
:1003F2001092600010926400109263001092B90093
:0A0402001092B8001092B7000895A0
:10040C008091AD008F5F823018F48093AD0021C0D5
:10041C001092AD008091B2008F5F8C3318F48093F2
:10042C00B20017C01092B2008091B1008F5F8C3374
:10043C0018F48093B1000DC01092B1008091B000FF
:10044C008F5F8D3018F48093B00003C081E08093EF
:10045C00B00082E00E941D058091B00042E061E096
:10046C0090E00E9463008091B10042E063E090E074
:10047C000E9463008091AF00813019F40E94FD044A
:10048C0008958091AE00813011F40E940D050895FD
:10049C00CF93E0916600F0916700EF2BB1F0E09103
:1004AC007000F0917100EF2BA1F0E0917A00F091C7
:1004BC007B00EF2B91F0E0918400F0918500EF2B05
:1004CC0081F0A3E0B0E0C3E00FC0A0E0B0E0C0E07A
:1004DC000BC0C1E0A1E0B0E007C0C2E0A2E0B0E018
:1004EC0003C0C3E0A3E0B0E0FD01EE0FFF1FAA0FB5
:1004FC00BB1FAA0FBB1FAA0FBB1FEA0FFB1FEA599A
:10050C00FF4F918380837383628331872087558368
:0C051C004483178216828C2FCF91089523
:100528000F931F93CF93DF93DC0120E030E070E05E
:10053800842F8170C82FE0E0DE2F01E010E0FB017E
:10054800022E02C0F595E7950A94E2F7E0FF1FC076
:1005580011969C911197FE01022E02C0EE0FFF1F0B
:100568000A94E2F7E92B1196EC931197423079F44B
:1005780012965C911297F801022E02C0EE0FFF1F2F
:100588000A94E2F7CF01852B12968C9312972F5F6E
:100598003F4F2830310599F6DF91CF911F910F9188
:0205A8000895B4
:1005AA000E942E040E942D050E94B70424EF31E018
:1005BA0041E050E060E070E086E092E00E944E0286
:1005CA0024E130E041E050E060E070E081EB91E04E
:1005DA000E944E022AEF30E041E050E060E070E015
:1005EA0082EE90E00E944E0225E030E041E050E0C9
:1005FA0060E070E087E591E00E944E020E94720579
:06060A000E945204FDCF26
:10061000282F30E0F901EE0FFF1FC901880F991F45
:10062000880F991F880F991FE80FF91FEA59FF4F8C
:1006300080819181892B29F482E08093650081E09B
:1006400001C080E0F901EE0FFF1F220F331F220FC0
:10065000331F220F331FE20FF31FEA59FF4F11829E
:1006600010821382128215821482178216820895D4
:100670001F920F920FB60F9211242F933F934F9317
:100680005F936F937F938F939F93AF93BF93EF93FA
:10069000FF93E091AA00F091AB00309709F0099523
:1006A000FF91EF91BF91AF919F918F917F916F914A
:1006B0005F914F913F912F910F900FBE0F901F9020
:0206C00018958B
:1006C2001F920F920FB60F9211242F933F934F93C5
:1006D2005F936F937F938F939F93AF93BF93EF93A8
:1006E200FF93E091A800F091A900309709F00995D5
:1006F200FF91EF91BF91AF919F918F917F916F91F8
:100702005F914F913F912F910F900FBE0F901F90CD
:02071200189538
:100714001F920F920FB60F9211242F933F934F9372
:100724005F936F937F938F939F93AF93BF93EF9355
:10073400FF93E091A600F091A700309709F0099586
:10074400FF91EF91BF91AF919F918F917F916F91A5
:100754005F914F913F912F910F900FBE0F901F907B
:020764001895E6
:100766001F920F920FB60F9211242F933F934F9320
:100776005F936F937F938F939F93AF93BF93EF9303
:10078600FF93E091A400F091A500309709F0099538
:10079600FF91EF91BF91AF919F918F917F916F9153
:1007A6005F914F913F912F910F900FBE0F901F9029
:0207B600189594
:1007B8001F920F920FB60F9211242F933F934F93CE
:1007C8005F936F937F938F939F93AF93BF93EF93B1
:1007D800FF93E091A200F091A300309709F00995EA
:1007E800FF91EF91BF91AF919F918F917F916F9101
:1007F8005F914F913F912F910F900FBE0F901F90D7
:02080800189541
:10080A001F920F920FB60F9211242F933F934F937B
:10081A005F936F937F938F939F93AF93BF93EF935E
:10082A00FF93E091A000F091A100309709F009959B
:10083A00FF91EF91BF91AF919F918F917F916F91AE
:10084A005F914F913F912F910F900FBE0F901F9084
:02085A001895EF
:10085C0041E06FEF80E390E00E94940241E061E0A0
:10086C0086E390E00E94940241E062E086E390E02F
:10087C000E94940241E064E086E390E00E949402BE
:10088C0041E060E186E390E00E9494028FEF809358
:08089C006200809361000895E1
:1008A4001F93CF93DF93C6E6D0E010E08E819F8143
:1008B400892B79F0E881F98109958E819F810197CF
:1008C4009F838E838C819D81892B19F4812F0E94B3
:1008D40008031F5F2A96143049F70E943A05DF91F6
:0608E400CF911F91089561
:1008EA00A1E21A2EAA1BBB1BFD010DC0AA1FBB1F2A
:1008FA00EE1FFF1FA217B307E407F50720F0A21B9C
:10090A00B30BE40BF50B661F771F881F991F1A9408
:10091A0069F760957095809590959B01AC01BD0132
:04092A00CF0108955C
:10092E00E6E6F0E02EE830E080819181892B99F0A7
:10093E0082819381009761F48681978101969783D6
:10094E00868380859185009731F09383828303C0DF
:10095E000197938382833A96E217F30729F7089556
:10096E0080E00E94080381E00E94080382E00E945A
:10097E00080383E00E94080363E088E20E945F059B
:10098E008DE70E9474050E94690587E994E00E9434
:04099E00640508954F
:1009A200052E97FB1EF400940E94450557FD07D0C3
:1009B2000E94750407FC03D04EF40C944505509533
:0E09C2004095309521953F4F4F4F5F4F089560
:1009D00061E086E390E00E94540562E086E390E0E7
:1009E0000E94540564E086E390E00E94540560E1B3
:0A09F00086E390E00E94540508958C
:1009FA008091B400882331F08FEF809362001092C7
:100A0A00B40008951092620081E08093B4000895C2
:100A1A008091B300882331F08FEF809361001092A8
:100A2A00B30008951092610081E08093B3000895A5
:100A3A004091B600815021E030E0B90102C0660F52
:100A4A00771F8A95E2F7CB0184278093B600089531
:100A5A0042E067E083E390E00E9494021092600013
:0A0A6A0010926400109263000895DA
:100A740085B78F7885BF85B7806885BF889585B72A
:060A84008F7785BF089585
:100A8A0090958095709561957F4F8F4F9F4F0895F0
:0E0A9A00FC018081682381E009F480E008956A
:0C0AA800FC01928160956923628308952F
:0A0AB400FC012281622B6283089589
:0A0ABE0012BE6770862B83BF0895F7
:0A0AC8009093A9008093A800089500
:080AD20089B7826089BF089515
:060ADA00FC016283089597
:040AE0000C94000072
:040AE4007894089565
:040AE8008CBF089522
:0A0AEC003F305B4F666D7D077F6FA2
:010AF6000CF3
:00000001FF
